:1000000000000320DD1A0000D30C0000150B0000D7
:10001000D30C0000D30C0000D30C00000000000043
:10002000000000000000000000000000D30C0000F1
:10003000D30C000000000000D30C0000851200006B
:1000400080B590B045F253400190CDF8370045F2AD
:100050005010C5F2523002900D9040F22020CFF6A1
:10006000FF4003900C9040F20650C0F200500B90FD
:100070000BA800900D21049100F0DAFD01460098D4
:10008000ADF83E109DF83F108DF839109DF83E10E8
:100090008DF83A100F21059101F084F8019B029A26
:1000A00003980499CDF827300992089040F2111076
:1000B000C0F20050079007A8069000F0B9FD05991E
:1000C00002460698ADF83E209DF83F208DF8292085
:1000D0009DF83E208DF82A2001F064F810B080BD14
:1000E00080B541F68C10C1F6FF700068012824D15C
:1000F00041F6A010C1F6FF7000680A281DD141F634
:100100006830C0F2000000F0A3FC40F6D540C0F219
:10011000000041F69331C0F20001A32201F0ACFCD3
:1001200040F62560C0F2000041F6AA31C0F200019D
:10013000A42201F0A1FC00F09FFC41F68C10C1F656
:10014000FF700068062824D141F6A010C1F6FF70A8
:10015000006828281DD141F66830C0F2000000F088
:1001600077FC40F60D70C0F2000041F6C131C0F2DC
:100170000001AD2201F080FC40F24100C0F200001D
:1001800041F6D831C0F20001AE2201F075FC00F05A
:0401900073FC80BDBF
:1001940080B541F68C10C1F6FF7000680A2818D1AA
:1001A40041F6A010C1F6FF70006890B941F66830BE
:1001B400C0F2000000F04AFC41F25D00C0F2000011
:1001C40041F67F51C0F20001BB2201F053FC00F064
:0401D40051FC80BD9D
:1001D80080B582B00020019001208DF803008DF8D1
:1001E80002008DF8010041F68020C0F2060000F000
:1001F80075F89DF803009DF802109DF8012000F0A5
:1002080053F800F077F801F095F800F097F8F8E760
:1002180083B002900020ADF8060041F68410C1F6C4
:10022800FF70006841F68811C1F6FF7109688842BD
:1002380036D041F68410C1F6FF70016841F6A81067
:10024800C1F6FF7030F81100ADF8060000200090EC
:100258000098BDF80610884212D241F68410C1F603
:10026800FF70016841F6C810C1F6FF7000EB8120ED
:10027800009A805C02998854009801300090E7E762
:1002880041F68410C1F6FF70016801310160006811
:10029800102805D141F68411C1F6FF7100200860CD
:0802A800BDF8060003B0704729
:1002B00082B08DF807008DF806108DF805204EF2FB
:1002C0001000CEF2000000909DF807009DF8061087
:1002D00040EA41009DF8051040EA8100009908605D
:0402E00002B07047B1
:1002E40082B001904EF21400CEF20000009001980A
:0802F4000099086002B0704798
:1002FC0080B582B040F20000C1F6FF7001F0D2F878
:10030C008DF807009DF80700A0B940F20000C1F677
:10031C00FF7045F6C811C1F6FF7100F08DF841F67B
:10032C007C11C1F6FF71086046F2E811C1F6FF714D
:08033C000120087002B080BD31
:1003440084B046F2E810C1F6FF700078012829D184
:1003540045F6C810C1F6FF708278C17841EA0221DF
:10036400ADF80E10406800BA029002980190002087
:1003740000900098BDF80E1088420CD2009A45F601
:10038400C810C1F6FF701044007A0199885400988F
:1003940001300090EDE741F69C11C1F6FF71086849
:0803A4000130086004B070474D
:1003AC0080B586B005900491039200208DF80B0067
:1003BC008DF80A00059801F0B3F88DF80B009DF844
:1003CC000B00012802D100208DF80A009DF80B00CB
:1003DC0001282DD00020019001980399884210D259
:1003EC000498019A805CDDF814C0DCF8001040F22F
:1003FC00144301FB03C111440872019801300190B0
:10040C00EAE70398059B196840F2144201FB02319C
:10041C00C1F818040599086801300860059800684F
:10042C00062802D105990020086001208DF80A00E9
:08043C009DF80A0006B080BD26
:1004440080B586B00590049100208DF80F000598C2
:1004540001F02CF88DF80F009DF80F00012801D150
:10046400002002909DF80F00012828D0059A5068BA
:1004740040F2144100FB0120D0F81804029000203F
:1004840001900198029988420ED2059A506840F270
:10049400144100FB0120019A1044007A0499885405
:1004A400019801300190ECE70599486801304860F3
:1004B40005984068062802D10599002048600298F2
:0404C40006B080BD41
:1004C80080B584B003908DF80B109DF80B008DF863
:1004D80003009DF80300092802D308208DF80300C3
:1004E8009DF8030001281BDB9DF8030001388DF8F7
:1004F800030003989DF803108900C84000F00F001E
:1005080001900198092805DC01983030C0B200F04C
:100518007EFC04E001983730C0B200F078FCDFE7D9
:0405280004B080BDDE
:10052C0080B582B001908DF803109DF80300C006D1
:10053C00002836D59DF8030091282ED1272000F0F5
:10054C0064FC01987E2806DC0198202803DB0198C6
:10055C0000F05BFC1DE001980D2806D15C2000F03A
:10056C0054FC722000F051FC13E001980A2806D1CB
:10057C005C2000F04AFC6E2000F047FC09E05C2097
:10058C0000F043FC782000F040FC01980221FFF7BA
:10059C0095FF272000F039FC02E0019800F01AF8D2
:1005AC0016E09DF803008006002803D5019800F0A2
:1005BC0025F80DE0302000F028FC782000F025FC18
:1005CC0001989DF8031001F00F014900FFF776FF29
:0405DC0002B080BD2C
:1005E00080B582B00190019800900198B0F1FF3F72
:1005F00005DC2D2000F00FFC009840420090009890
:0806000000F002F802B080BD19
:1006080080B584B003900120029003980299B0FB52
:10061800F1F00A2805D3029800EB80004000029010
:10062800F3E703980299B0FBF1F04CF6CD41CCF614
:10063800CC410191A0FB0121C90801EB8101A0EB8C
:10064800410040F0300000F0E2FB01990298A0FB65
:100658000110C008029002980028E2D104B080BDC1
:1006680080B541F62810C1F6FF70406A38B141F6EE
:100678002811C1F6FF71C8690130C8611BE041F655
:100688002810C1F6FF70006A70B941F62811C1F64A
:10069800FF710868096901F0C9F941F64D40C0F2D7
:1006A800000001F075F906E041F62811C1F6FF7166
:1006B80088690130886141F62811C1F6FF71002070
:0C06C800086248620A2000F0A2FB80BD1E
:1006D40080B582B0019041F62810C1F6FF70006821
:1006E400019901F0A5F941F65240C0F2000001F071
:0C06F40051F93A2000F08DFB02B080BDEF
:1007000080B582B00190019890B341F63F40C0F2AD
:10071000000001F041F941F62810C1F6FF70806831
:1007200018B341F66E20C0F2000001F035F941F631
:100730002810C1F6FF700090806801F02DF9009834
:10074000C06860B141F63440C0F2000001F024F905
:1007500041F62810C1F6FF70C06801F01DF941F69E
:100760003F40C0F2000001F017F9019801F014F9C0
:0407700002B080BD96
:1007740080B586B084460898CDF814C004910392DD
:1007840002938DF8070041F62810C1F6FF70006A45
:1007940028B941F62810C1F6FF70406A38B141F615
:1007A4002810C1F6FF702830012100F0D5F9059812
:1007B4000499884224D00298FFF78AFF41F6F23068
:1007C400C0F2000001F0E6F805989DF80710FFF765
:1007D400ABFE41F6BE10C0F2000001F0DBF8049855
:1007E4009DF80710FFF7A0FE0398FFF787FF41F677
:1007F4002810C1F6FF7001210162283000F0ACF925
:0408040006B080BDFD
:1008080010B58EB08C46864612981199109CCDF87A
:1008180034E0CDF830C00B920A938DF827108DF88C
:1008280026000B9808909DF8270000F00F0007900D
:100838000020069041F62810C1F6FF70006A28B91A
:1008480041F62810C1F6FF70406A38B141F6281009
:10085800C1F6FF702830012100F07CF90B98A0B98F
:100868001098FFF733FF41F6FD30C0F2000001F0A9
:100878008FF80A98FFF740FF41F62810C1F6FF707D
:1008880001210162283000F065F90D980C99884221
:1008980000D1A3E00D980C99109A0A9B00F0A0F8DB
:1008A80040B141F62810C1F6FF70012101622830DD
:1008B80000F050F908990020029031B10898411EC3
:1008C8000891002818BF012002900298C00700284C
:1008D80000F0848007980190012806D0019802282A
:1008E8000ED00198042816D015E00D9890F9000054
:1008F80005900C9890F9000004900120069013E0F0
:100908000D98B0F9000005900C98B0F9000004901B
:100918000220069008E00D98006805900C98006881
:10092800049004200690079005980499884248D0BE
:100938009DF827008006002812D5079803280FD8AD
:100948000120039003980799C90088400138039053
:100958000399059808400590039904980840049065
:100968001098FFF7B3FE41F62A20C0F2000001F00C
:100978000FF80B990898C0430844FFF741FE41F669
:10098800F230C0F2000001F003F805989DF8271036
:10099800FFF7C8FD41F6BE10C0F2000000F0F8FFF6
:1009A80004989DF82710FFF7BDFD0A98FFF7A4FEED
:1009B80041F62810C1F6FF7001210162283000F0CD
:1009C800C9F89DF82600012803D10D980699084416
:1009D8000D900C98069908440C906BE70EB010BD6A
:1009E80080B586B00490039102920193049803990C
:1009F800884202D10020059023E0049870B902983B
:100A0800FFF764FE41F65740C0F2000000F0C0FF57
:100A18000198FFF771FE0120059012E0039870B964
:100A28000298FFF753FE41F67440C0F2000000F050
:100A3800AFFF0198FFF760FE0120059001E000205C
:080A48000590059806B080BD81
:100A500081B00090009841F62811C1F6FF7108603E
:100A600000204860086148618861C8610862486286
:080A70008860C86001B0704706
:100A780080B582B00A20009000F0C9F941F697507D
:100A8800C0F2000000F084FF009800F0C0F941F6C1
:100A98002810C1F6FF7001904069FFF79DFD41F6EF
:100AA800AF50C0F2000000F073FF01988069FFF7B3
:100AB80093FD41F64240C0F2000000F069FF019842
:100AC800C069FFF789FD41F6D220C0F2000000F0AE
:100AD8005FFF009800F09BF90198806930B941F6F2
:100AE800EF30C0F2000000F053FF05E041F652403D
:100AF800C0F2000000F04CFF0A2000F088F941F62F
:0C0B08002810C1F6FF70806902B080BDAB
:100B140008490A68002AFED41EF0040F0CBFEFF344
:100B24000880EFF3098042F000420A6081690231D3
:080B3400816170472CED00E027
:100B3C00034C206804348047FBE7FFF747FBFEE7D4
:040B4C00B81D0000D0
:0C0B50006A46A0E8F45F0020704700BF78
:100B5C00B0E8F45F9546080008BF0120704700BF5D
:100B6C005AB3844690EA01039B071FD1830707D031
:100B7C0011F8013B00F8013B013AF7D11CE0844627
:100B8C00203A09D32DE9F007B1E8F807A0E8F807F7
:100B9C00203AF9D2BDE8F0071C3205D451F8043BD9
:100BAC0040F8043B043AF9D2043205D011F8013B69
:0C0BBC0000F8013B013AF9D16046704797
:100BC80000220B0011001A0084465AB3830704D090
:100BD80000F8011B013AF9D124E0C9B241EA012128
:100BE80041EA0141202A11D3203A2DE9F0030B46AE
:100BF8000C460D460E460F4688468946A0E8FA037D
:100C0800203AFBD2BDE8F00320320BD0042A05D3EA
:100C180040F8041B043A05D0042AF9D200F8011B55
:080C2800013AFBD16046704760
:100C300085B00490039100208DF809008DF808001C
:100C4000009000980399884237D29DF809000499D2
:100C5000009A895C084440F20211C0F20111A0FB25
:100C6000013210448DF809009DF808009DF8092014
:100C70001044A0FB013210448DF808009DF80900D3
:100C80009DF808201044A0FB01210844C0438DF8C2
:100C900007009DF808008DF806009DF8070010B9C0
:100CA000FF208DF807009DF8060010B9FF208DF891
:100CB0000600009801300090C3E79DF807109DF8EA
:100CC000060040EA0120ADF80A00BDF80A0005B0B0
:020CD00070476B
:020CD200FEE73B
:100CD40080B5ADF5006D0DF2144040F2EA31FFF736
:100CE40071FF06208DF8140402208DF815040320EA
:100CF4008DF81604E0208DF8170420208DF81804D0
:100D040001208DF819040020CDF81004DDF810043A
:100D1400B0F5787F0BDADDF810040DF214410144CC
:100D24000872DDF810040130CDF81004EEE70DF27E
:100D3400144002904FF47A71FFF778FF014602984D
:100D4400ADF8FE179DF8FF178DF8FC179DF8FE17F8
:100D54008DF8FD1740F2EA31039100F021FA039A6D
:100D640041F2AE51C0F200010DF12600FFF7FCFE86
:100D7400002008900898B0F5787F0ADA089901F104
:100D840080000DF126021144087208980130089081
:100D9400F0E70DF1260000904FF47A71FFF746FF5B
:100DA40001460098ADF8FE179DF8FF178DF80E1454
:100DB4009DF8FE178DF80F1440F2EA3100F0F0F9B7
:100DC40000208DF81C004BF6FA20C0F2DA000690E1
:100DD40040F22010C0F20830059040F20620C0F224
:100DE4000030049004A801900B21FFF71FFF014677
:100DF4000198ADF8FE179DF8FF178DF81B109DF8AC
:100E0400FE178DF81C100D2100F0CAF90DF5006DC8
:020E140080BD9F
:0E0E160046F2EC11C1F6FF71096800F063B8F6
:100E240080B5ADF5816D0DF11B0040F2EB31FFF79C
:100E3400C9FE06208DF81B0002208DF81C0003203B
:100E44008DF81D00E1208DF81E0020208DF81F0074
:100E540001208DF82000002005900598B0F5787FDA
:100E640009DC0599481E0DF11B021144087205980E
:100E740001300590F1E70DF11B00009040F2E931DB
:100E8400FFF7D4FE01460098ADF806149DF8071448
:100E94008DF804149DF806148DF8051440F2EB3116
:100EA40000F07EF94FF48070CDF80F004FF490708D
:100EB400039040F20620029002A801900921FFF756
:100EC400B5FE01460198ADF806149DF807148DF897
:100ED40011109DF806148DF812100B2100F060F922
:060EE4000DF5816D80BDDB
:100EEA0080B50B468DF803000DF1030001210122A4
:100EFA0000F098F800289DF8030008BF4FF0FF3073
:020F0A0008BD20
:100F0C0080B5ADF5856D45F25340CDF81F0445F223
:100F1C005010C5F25230CDF81C0440F22020CFF610
:100F2C00FF40CDF8180440F20620C0F200500190AA
:100F3C00CDF814040DF2144000900D210291FFF72E
:100F4C0071FE01460098ADF826149DF827148DF813
:100F5C0021149DF826148DF822140F21039100F012
:100F6C001BF90198029940F60812CDF80F2440F2B3
:100F7C000562C0F60702CDF80C244FF61F62CFF6BF
:100F8C00FF42CDF80824CDF804040DF2044004907F
:100F9C00FFF748FE039902460498ADF826249DF805
:100FAC0027248DF811249DF826248DF8122400F0A6
:100FBC00F3F80DF11A0040F2EA31FFF7FFFD0620BD
:100FCC008DF81A0002208DF81B0003208DF81C00F0
:100FDC00E0208DF81D0020208DF81E0001208DF8DA
:100FEC001F00002005900598B0F5787F0ADA059966
:100FFC0001F1EE000DF11A0211440872059801304E
:10100C000590F0E700208DF8020401208DF8030410
:10101C000DF11A0040F2EA3100F0BEF80DF5856DC5
:02102C0080BD85
:10102E00F8B51D4617460C460646184600F057FD05
:10103E00002803D407FB04F2A24201D20020F8BD1F
:0E104E002846314600F0A4F8B0FBF4F0F8BDDF
:10105C0080B5ADF5FF6D0020C2F20100CDF8F407AC
:10106C000020CDF81004DDF81004B0F5787F0ADA12
:10107C00DDF810040DF214410854DDF810040130B1
:10108C00CDF81004EFE7DDF8F4176A460120906004
:10109C00412050608920106041F6A743C0F2000344
:1010AC000DF214404FF47872FFF7A8FB40F20040A9
:1010BC00C2F20100CDF80C0400200A900A98B0F599
:1010CC00787F08DA0A9A02F180000BA988540A98F2
:1010DC0001300A90F2E7DDF80C146A460120039007
:1010EC0090604120049050609120106041F6EF43D5
:1010FC00C0F200030BA84FF47872FFF77FFB039B41
:10110C00049840F60301C2F201010991DA218DF82D
:10111C0022104BF6FA21ADF8201009996A4693601B
:10112C0050609520106041F63753C0F2000308A8B8
:10113C0003220692FFF762FB069841F6A411C1F652
:10114C00FF7109686B46242205921A6000220792EF
:10115C009823FFF709FB0598079A41F68011C1F611
:10116C00FF7109686B46186007209923FFF7FCFA9A
:10117C00059B0698079A41F69C11C1F6FF71096808
:10118C00EC46CCF800309A23FFF7EEFA0DF5FF6D24
:02119C0080BD14
:06119E00006800F0E9B951
:1011A40083B00290ADF80610BDF8060041F6881130
:1011B400C1F6FF710A6841F6A811C1F6FF7121F862
:1011C4001200002000900098BDF80610884212D248
:1011D4000298009A805C41F68811C1F6FF710B6891
:1011E40041F6C811C1F6FF7101EB832188540098C0
:1011F40001300090E7E741F68810C1F6FF700168FE
:10120400013101600068102805D141F68811C1F64A
:0A121400FF710020086003B070476E
:10121E0041F68000C1F6FF7003210161416141F684
:10122E009E42C0F20002826145F6D851C1F6FF71AE
:10123E00C1614FF480610162002181624162C1622D
:10124E00026646F2D812C1F6FF724266102282661C
:10125E000167C1664167BFF35F8F41F68D42C0F2F1
:10126E00000281F00F03D35C435401311029F8D1F1
:06127E00BFF35F8F704713
:1012840080B5ADF5826D41F6A010C1F6FF7000681F
:1012940031280DD141F6A011C1F6FF71002008607C
:1012A40041F68C11C1F6FF7108680130086006E050
:1012B40041F6A011C1F6FF7108680130086004A866
:1012C400FEF7A8FFADF80E0001208DF80D009DF883
:1012D4000D1000200129029006D1BDF80E10002047
:1012E4000029C8BF012002900298C00790B1BDF840
:1012F4000E2040F20000C1F6FF7004A90191FFF72F
:1013040053F8014601988DF80D10FEF783FFADF8F0
:101314000E00DCE7FEF7E2FEFEF73AFF0DF5826D04
:0213240080BD8A
:101326000146C0680A6982426FEA000010449CBF09
:06133600896808447047BD
:10133C0080B586B046F2E810C1F6FF70007801283F
:10134C0040F0838041F67C10C1F6FF70019000687C
:10135C00811E45F6C810C1F6FF700290FFF762FCC3
:10136C000199029AADF81600BDF8160009681144EF
:10137C0011F8022C11F8011C41EA0221884257D1C4
:10138C0045F6C810C1F6FF7001788DF8151041783C
:10139C008DF814108278C17841EA0221ADF8121050
:1013AC00406800BA03909DF81500062832D19DF8CC
:1013BC00140002282ED1BDF8120001282ADBBDF83A
:1013CC001200B0F5787F25DC03980021C1F6FF717F
:1013DC0088421FD303984FF6FF71C2F20201884274
:1013EC0018D80398BDF81210084401384FF6FF7155
:1013FC00C2F2020188420DD846F2E811C1F6FF7123
:10140C000120087041F6A411C1F6FF710868013083
:10141C0008600CE046F2E811C1F6FF71002008707C
:10142C0041F68011C1F6FF710868013008600CE0CC
:10143C0046F2E811C1F6FF710020087041F68011E8
:0E144C00C1F6FF7108680130086006B080BD6F
:10145A002DE9F843144688460546C7684FF0000947
:10146A002869F943B8420844A96898BF0844CE1BC2
:10147A00B04238BF06466868A642384428BF2646A6
:10148A0041463246FFF76DFBF019A968471A18BFA3
:10149A000746BFF35F8FEF60A41BB044B144DFD1AE
:0614AA004846BDE8F8838E
:1014B00082B0019000208DF8030001980168406817
:1014C000401A10B901208DF803009DF8030002B006
:0214D000704763
:1014D20070B50D4600EB400041F68001C1F6FF7188
:1014E20001EBC00101F11806C86A022817D01446A0
:1014F200012807D020B93046FFF714FFA04207D2D7
:1015020000240AE03046FFF70DFFA04238BF044630
:1015120030462946224600F004FB204670BD304684
:0A1522002946BDE87040FFF797BFAF
:10152C0082B0019000208DF803000198016840689A
:10153C00884208D3019801684068401A012802D1FA
:10154C0001208DF80300019801684068884208D298
:10155C00019801684068401A053010B901208DF8D7
:0A156C0003009DF8030002B0704771
:10157600F8B51446064641F68000C1F6FF700D46E2
:101586000078002808BFFFF747FEEFF311874FF0FA
:10159600200181F31188304629462246FFF796FF3F
:0615A60087F31188F8BD77
:0215AC00704786
:1015AE00060203E02001040000000000000000001D
:1015BE00000000000000000000000000000000001D
:1015CE00000000000000000000000000000000000D
:1015DE0000000000000000000000000000000000FD
:1015EE0000000000000000000000000000000000ED
:1019980080B582B0019001980090009848B10098F5
:1019A800007830B1009800F009F8009801300090F4
:0619B800F5E702B080BD5E
:0619BE00205761732000B8
:1019C40080B582B00190019800787E2808DC0198E7
:1019D4000078202804DB01980078FFF71AFA20E049
:1019E400019800780D2806D15C20FFF712FA7220C6
:1019F400FFF70FFA15E0019800780A2806D15C2059
:101A0400FFF707FA6E20FFF704FA0AE05C20FFF7FD
:101A140000FA7820FFF7FDF9019800780221FEF71B
:061A240051FD02B080BD7F
:0A1A2A0020456C656D656E742000A8
:101A340080B584B0039002910398FFF7ABFF3A207E
:101A44000190FFF7E6F90298FEF7C8FD0198FFF749
:101A5400E0F941F62810C1F6FF704068FFF79AFFDD
:0A1A64000198FFF7D6F904B080BD29
:0A1A6E0046756E6374696F6E200008
:101A780080B584B0039002910192029841F6281132
:101A8800C1F6FF71486001980861486901304861F2
:101A980000208860C86041F62810C1F6FF70283021
:101AA800FFF752F818B9FFF77DFD0398804741F614
:101AB8002810C1F6FF702830FFF746F808B9FFF77D
:0A1AC80071FDFEF7CDFD04B080BDF6
:0A1AD2002049676E6F726564200002
:101ADC000820006800BF00BFAFF30080FFF728F8B4
:101AEC0046F2EC11C1F6FF7146F2F0120968091AC0
:101AFC00C1F6FF7218BF01211268121A18BF012219
:101B0C00114046F2F412C1F6FF721268101A18BF97
:081B1C0001200840404270471F
:101B24002DE9F0411546884604464068D4E902167A
:101B340030448F1BBA42414605D2FFF715F83544AD
:101B4400BFF35F8F0BE03A46FFF70EF808EB07018F
:101B5400ED1B60682A46FFF707F8BFF35F8FE56067
:041B6400BDE8F08167
:101B68002F686F6D652F6178656C2F7073612F70AA
:101B7800726163332F536F757263652F69745F7475
:0B1B8800636D645F746573742E63006E
:101B930069745F74636D645F3039305F72756E5F53
:071BA3007061727431310022
:101BAA0069745F74636D645F3039305F72756E5F3C
:071BBA00706172743132000A
:101BC10069745F74636D645F3039305F72756E5F25
:071BD10070617274323100F3
:101BD80069745F74636D645F3039305F72756E5F0E
:071BE80070617274323200DB
:031BEF004F4B0059
:0B1BF200204578706563746564200076
:101BFD0020596F752041736B6564204D6520546FBE
:101C0D0020436F6D70617265204E6F7468696E67E9
:101C1D002C2057686963682057617320506F696E77
:071C2D00746C6573732E0057
:0B1C340020417267756D656E74200022
:031C3F002E200054
:0B1C4200204661696C7572657320001C
:051C4D0050415353005B
:051C52004641494C0071
:101C570020457870656374656420706F696E74657C
:0D1C67007220746F206265204E554C4C00B9
:101C74002041637475616C20706F696E74657220A5
:091C8400776173204E554C4C00B1
:101C8D000000000000005454522052454747455370
:011C9D000046
:091C9E005465726D696E616C0001
:101CA7004641494C3A204D69736D61746368206FF2
:101CB7006E2069745F74636D645F3039305F72756D
:101CC7006E5F70617274313120E2809320657870A5
:101CD70065637465642074633120213D20616374FA
:081CE70075616C20746331008B
:101CEF004641494C3A204D69736D61746368206FAA
:101CFF006E2069745F74636D645F3039305F727525
:101D0F006E5F70617274313120E28093206578705C
:101D1F0065637465642074633220213D20616374B0
:081D2F0075616C207463320041
:101D37004641494C3A204D69736D61746368206F61
:101D47006E2069745F74636D645F3039305F7275DC
:101D57006E5F70617274313120E280932065787014
:101D670065637465642074633320213D2061637467
:081D770075616C2074633300F8
:101D7F0069745F74636D645F3039305F6368656386
:081D8F006B5F66756E63730063
:101D97002D2D2D2D2D2D2D2D2D2D2D2D2D2D2D2D6C
:081DA7002D2D2D2D2D2D2D00F9
:081DAF002054657374732000D9
:101DB800E51D00000000FF1FE9610000F71D00009D
:101DC800EC61FF1FD81D00000C000000470B00004D
:0C1DD8009019FF1F9419FF1F9819FF1F9E
:101DE400206861680834002200E042540139FCD5BF
:021DF400704736
:101DF60020686168A2680C3401E08B5C8354013A68
:041E0600FBD5704751
:0400000300001ADD02
:00000001FF
